:040000003FEF0FF0CF
:08000800046ED8CF05F0E0CF33
:1000100006F00001E9CF0CF0EACF07F0E1CF08F0DD
:10002000E2CF09F0D9CF0AF0DACF0BF0F3CF12F01C
:10003000F4CF13F0FACF14F000C00EF001C00FF0AF
:1000400002C010F003C011F09DA02AEF00F09EB096
:100050009EEF01F00EC000F00FC001F010C002F0E2
:1000600011C003F00CC0E9FF07C0EAFF078E08C00B
:10007000E1FF09C0E2FF0AC0D9FF0BC0DAFF12C0DE
:10008000F3FF13C0F4FF14C0FAFF045006C0E0FFF2
:1000900005C0D8FF1000F2CF0DF0F29EAE0FF66E45
:1000A000000EF7220900F5500DBEF28E120000007E
:1000B00027004F0076009D00C500EC0013013A01B7
:1000C00061018801AF01D601FC0123024A027002DE
:1000D0009702BD02E3020A03300356037C03A20326
:1000E000C803EE03130439045F048404AA04CF0494
:1000F000F40419053F0564058905AD05D205F7052A
:100100001C06400665068906AD06D106F6061A07E6
:100110003E0761078507A907CC07F00713083708D2
:100120005A087D08A008C308E60808092B094E09EB
:1001300070099209B509D709F9091B0A3C0A5E0A38
:10014000800AA10AC30AE40A050B260B470B680BB9
:10015000890BAA0BCA0BEA0B0B0C2B0C4B0C6B0C70
:100160008B0CAB0CCA0CEA0C090D280D480D670D61
:10017000860DA40DC30DE20D000E1E0E3D0E5B0E8E
:10018000790E960EB40ED20EEF0E0C0F2A0F470FFB
:10019000630F800F9D0FB90FD60FF20F0E102A10AC
:1001A000461062107D109910B410CF10EA1005119E
:1001B00020113B1155116F118A11A411BE11D711D5
:1001C000F1110A1224123D1256126F128812A01257
:1001D000B912D112E91201131913F2CF0DF0F29EE8
:1001E000F20FF66E010EF7220900F5500DBEF28EE9
:1001F0001200000027004F0077009E00C600EE00AE
:1002000015013D0165018D01B501DD0105022D02DC
:1002100055027D02A502CE02F6021E0346036F03BD
:100220009703C003E8031104390462048B04B30488
:10023000DC0405052E0556057F05A805D105FA0540
:1002400023064C0675069E06C706F00619074207E8
:100250006B079507BE07E70710083A0863088C0884
:10026000B608DF08080932095B098409AE09D70915
:10027000010A2A0A540A7D0AA70AD00AFA0A230B9D
:100280004D0B760BA00BC90BF30B1C0C460C700C22
:10029000990CC30CEC0C160D3F0D690D920DBC0DA5
:1002A000E50D0F0E380E620E8B0EB50EDE0E080F2A
:1002B000310F5B0F840FAD0FD70F00102A105310B2
:1002C0007C10A610CF10F81021114B1174119D1144
:1002D000C611EF11191242126B129412BD12E612DE
:1002E0000F13381361138A13B313DC1304142D1482
:1002F00056147F14A814D014F91422154A15731536
:100300009C15C415ED1515163E1667168F16B716F3
:10031000E0160817311759178117AA17D217F2CF0D
:100320000DF0F29EF76A380FF66E030EF722090001
:10033000F5500DBEF28E1200280C0106202AD8B40A
:10034000212A9E902AEF00F00D0A0D0A4343532004
:1003500043414E205452414E5346455220424D4552
:1003600032383020444154410D0A00000D0A5275C4
:100370006E6E696E672E2E2E00000D0A6C6F773D33
:10038000257500000D0A686967683D2575000D0A2E
:1003900053504956414C33203D2025582053504955
:1003A00056414C32203D2025582053504956414C4F
:1003B00031203D2025582053504956414C30203D96
:1003C0002025582000000D5072652046696C746528
:1003D00072203D202566204C696E656172697A65E0
:1003E00064203D202566200049443A3078323900A7
:1003F0000D0A474F543A20425546463D255520495F
:10040000443D254C55204C454E3D2555204F5646E4
:100410003D255520000046494C543D255520525459
:10042000523D2555204558543D255520494E563DB1
:10043000255500000D0A2020202044415441203D34
:1004400020000D0A4641494C206F6E204745544418
:100450000D0A00000D0A5055542025553A204944F4
:100460003D254C55204C454E3D2555200000505211
:10047000493D2555204558543D2555205254523D5F
:1004800025550D0A20202044415441203D200000E4
:100490000D0A4641494C206F6E20505554440D0AB8
:1004A00000000900F5520DE0F6CF52F0F7CF53F0FF
:1004B000F5509EA8FED7AD6E52C0F6FF53C0F7FFB1
:1004C000F0D71200EA6A710EE96EEF500DE0060EE9
:1004D000016E006A002EFED7012EFBD77B0E006E48
:1004E000002EFED7EF2EF3D7120068B102D089900C
:1004F00001D08980929068B302D0899201D089821C
:10050000929268B502D0899801D08988929868B78C
:1005100002D0899A01D0898A929A92EF02F067C03C
:1005200068F0E3D7100E006E002EFED700008B821D
:10053000100E006E002EFED700008B9212008B90E2
:10054000010E716FBFDF645302E18B9001D08B808D
:10055000200E006E002EFED700D00000200E006E90
:10056000002EFED700D000008B926539666F0F0E0B
:10057000661766C067F0D3DF65510F0B666F676F54
:10058000CEDF12008B908B92C80E716F9BDF010E35
:10059000526E5250030808E3030E676FC0DF0A0E65
:1005A000716F90DF522AF5D7020E676FB8DF526A7B
:1005B000525003080EE3036A5250F2CF53F0F29EFA
:1005C000AEDE53BEF28E536E646B656FB8DF522A97
:1005D000EFD712005238700B006ED89000361F0E05
:1005E0006F1400106F6E6ECF00F0003A0030070BF2
:1005F000525CF9E11200C00E70140409706E3F0ED7
:100600007014706EF80E71140209716EC70E7114B9
:100610002809716E719C718EF80E72140509726E44
:10062000729CAFEF03F063C06AF062C069F0685378
:1006300052E069C0E9FF6AC0EAFF64C0EFFF695198
:10064000D8B46A07690769C0E9FF6AC0EAFF65C0F4
:10065000EFFF6951D8B46A07690769C0E9FF6AC04A
:10066000EAFF6651030BEF6E69C0E9FF6AC0EAFF5B
:1006700066C000F0003600360036F80E0016005056
:10068000E00BEF10EF6E69C0E9FF6AC0EAFFEF50C0
:100690000809EF6E6951D8B46A07690769C0E9FFB4
:1006A0006AC0EAFF66C000F0003A0032070E00168A
:1006B0000050070BEF6E69C0E9FF6AC0EAFF67C030
:1006C00000F0003600360036F80E00160050F80B29
:1006D000EF10EF6E3FD069C0E9FF6AC0EAFFEF6A32
:1006E0006951D8B46A07690769C0E9FF6AC0EAFFBF
:1006F000EF6A6951D8B46A07690769C0E9FF6AC03F
:10070000EAFF64C000F0003A0036E00E0016005028
:10071000E00BEF6E6951D8B46A07690769C0E9FF59
:100720006AC0EAFF64C000F00032003200321F0EDF
:10073000001600501F0BEF6E69C0E9FF6AC0EAFFA8
:1007400065C000F0003A0036E00E00160050E00BE5
:10075000EF10EF6E1200040E526E3CDF4CD7606A51
:100760009F0E6014606E608460CF50FF739A739820
:10077000739E739C0F0E636F1B0E626F676B666BCD
:10078000656B646B010E686F4EDF0F0E636F030EB7
:10079000626F676B666B656B646B010E686F43DF3E
:1007A0000F0E636F070E626F676B666B656B646B32
:1007B000010E686F38DF0F0E636F1F0E626F676B7D
:1007C000666B656B646B010E686F2DDF0F0E636FD8
:1007D0000B0E626F676B666B656B646B010E686F07
:1007E00022DF0F0E636F626F676B666B656B646B06
:1007F000010E686F18DF0F0E636F130E626F676B69
:10080000666B656B646B010E686F0DDF0F0E636FB7
:10081000170E626F676B666B656B646B010E686FBA
:1008200002DF9350FB0B0809936E526AD3DE86EF0A
:100830000FF05950016A585C03E258C000F00CD028
:10084000006A080E5A6E583600365950005CD8B00F
:10085000006E01365A2EF7D712000900F6CF57F076
:10086000F7CF58F0F5509EA8FED7AD6E57C0F6FFF3
:1008700058C0F7FF562EF1D71200015056C058F05D
:10088000640E596ED6DF00C056F00150300E07E1FD
:1008900057A20DD057B60BD057B8200E03D057969D
:1008A00057985780012601509EA8FED7AD6E56C0BE
:1008B00058F00A0E596EBDDF00C056F00150300EE0
:1008C00006E157B609D057A007D057B8200E012629
:1008D00001509EA8FED7AD6E300E562656509EA8EB
:1008E000FED7AD6E12007251080804E0736F7137C5
:1008F000732FFDD79388939A8A9A72C073F08A8A6D
:10090000070E746F742FFED7013681A8019081B84D
:1009100001808A9A080E746F742FFED7732FEFD759
:100920001200716B080E726FDEDF939C8A9C716BF4
:10093000080E726FD8DF015001C019F0100E006E62
:10094000002EFED70000716B080E726FCCDF0150D5
:1009500001C018F0100E006E002EFED70000716B63
:10096000080E726FC0DF015001C017F0100E006E4C
:10097000002EFED70000716B080E726FB4DF0150BD
:1009800001C016F0100E006E002EFED70000939CE2
:100990008A8C12008E0E006E7AC001F079C002F0CF
:1009A000036A015209E102C001F0026A080E005E0A
:1009B000015202E1006A08D0D89001BE04D002368C
:1009C00001360006F9D7019E120054BE10D00F0E5A
:1009D000006E533800160A0E005C03E2300E00264B
:1009E00002D05450002600509EA8FED7AD6E0F0EC8
:1009F00053160A0E535C02E2300E02D0549E54503D
:100A0000532653509EA8FED7AD6E1200719171937C
:100A1000719571971850010B7197E8B07187163076
:100A2000006E00323F0E00160050010B7191E8B0CD
:100A30007181D8901630010B7193E8B07183165014
:100A4000010B7195E8B07185000E71B7010E726FE0
:100A5000000E71B1010E006ED89000360050722564
:100A6000000E71B3010E040DF350000E71B5010EAE
:100A7000080DF3CF01F074EF08F07951D8B4A5D088
:100A8000856F7D51D8B4A1D0855F05E37F0E8527A2
:100A9000D8B09BD006D0810E855FD8A096D0D8B4B0
:100AA00094D085C000F0016A026A036A846B7AC040
:100AB00083F0838F7BC082F07CC081F0190E856F3C
:100AC0008051815F0DE2010E825F0AE2835F08E2DE
:100AD000845F06E2842B832B822B8051812728D0D0
:100AE0007F51825F12E2010E835F0FE2845F0DE2AD
:100AF000842B832B7F5182278051812719E3822BFE
:100B000017E1832B15E1842B13D07E518009835F7D
:100B10000EE2010E845F0BE2842B7E518009832755
:100B20007F518227E9E3832BE7E1842BE5D703801C
:100B3000852F01D00BD0D890813782378337843707
:100B4000D8900336023601368637BAD786A106D04A
:100B5000D890013202320332863302D0000635E0EB
:100B600086BF1ED0D8908137823783378437805133
:100B7000815F07E2010E825F04E2835F02E2845F2D
:100B80001AE37F51825F05E2010E835F02E2845F18
:100B900012E37E518009835F03E2010E845F0BE361
:100BA000032A09E1022A07E1012A05E1002A0DE0F2
:100BB0000132023203327AC085F07E51851B85AF47
:100BC00002D0018E06D0019E04D0006A016A026A3A
:100BD000036A12007D51D8B471D0006E8151D8B42F
:100BE0006DD0002604E3810E002668E204D07F0E5B
:100BF000005E64E363E07EC085F08251851B7E8FDA
:100C0000828F80518403F4CF87F07F518303F4CF28
:100C100003F0F3CF86F08403F3508727F450862344
:100C2000000E032280518303F3508727F45086235C
:100C3000000E026A032202227E518403F3508627AB
:100C4000F4500322000E02227E518303F350032648
:100C5000F4500222000E016A012280518203F350F7
:100C60008627F4500322000E022201227F518203C4
:100C7000F3500326F4500222000E01227E5182031B
:100C8000F3500226F4500122002A01BE05D0863717
:100C90000336023601360006000E86AF0AD0032A5C
:100CA00002220122015005E1025003E1035001E15B
:100CB000002A85BF018E85AF019E04D0006A016ABB
:100CC000026A036A1200746B736B786B776B766BD6
:100CD000756B19C074F018C073F074BF2BD07433E7
:100CE0007333743373333F0E741774C07AF073C068
:100CF00079F050DE03C07CF002C07BF001C07AF0D6
:100D000000C079F0806B7F6B7E6B810E7D6FB5DEEE
:100D100003C078F002C077F001C076F000C075F033
:100D200075C000F076C001F077C002F078C003F023
:100D300047D046D0731F741F7433733374337333C7
:100D40003F0E7417010E7327000E742374C07AF0DF
:100D500073C079F01FDE03C07CF002C07BF001C0DD
:100D60007AF000C079F0806B7F6B7E6B810E7D6FB7
:100D700084DE03C07CF002C07BF001C07AF000C0CA
:100D800079F003C080F002C07FF001C07EF000C0A7
:100D90007DF0846B836B800E826F7F0E816F1ADF14
:100DA00003C078F002C077F001C076F000C075F0A3
:100DB00075C000F076C001F077C002F078C003F093
:100DC00083EF08F0800ED8B27A1B7F6B806B76C001
:100DD0007EF07A517E1B7551D8B4DCD07D6F006EE9
:100DE0007951D8B4E0D07D5FD8B481D03DE37AC0EA
:100DF00083F0838F7BC082F07CC081F0806BD890C1
:100E000083338233813380337D2FF8D77EAF03D095
:100E10007F81DDD07F917D917F89EA6A780EE96ECE
:100E2000E9D07F997EBF0AD07DA113D0833382336E
:100E300081338033002AD8B4C5D00BD083BF0CD007
:100E4000D89080378137823783370006D8B4BAD03C
:100E5000F5D77F8D6BD07F9D76C07EF076AF02D0C8
:100E6000838FA9D0839FA7D079C07DF079C000F08F
:100E700075517D5F76C083F0838F77C082F078C034
:100E800081F0806BD89083338233813380337D2F20
:100E9000F8D77EAF03D07F839AD07F937D917F8BED
:100EA000EA6A7C0EE96EA6D07F9B7EBF0AD07DA148
:100EB00013D08333823381338033002AD8B482D075
:100EC0000BD083BF0CD0D8908037813782378337DF
:100ED0000006D8B477D0F5D77F8F28D07F9F7AC00F
:100EE0007EF07AAF02D0838F66D0839F64D07AC0C1
:100EF00083F0838F7BC082F07CC081F07EAF04D012
:100F0000839F7F8564D07F95806B7D91EA6A780EA0
:100F1000E96E70D07EBF1CD076C07EF07DA106D079
:100F20008333823381338033002A4CE080AF0BD08F
:100F3000812B09E1822B07E1832B05E18333823387
:100F40008133002A3FE07FBD86D77FBFC7D71CD043
:100F5000800E831B83AF04D03AD07AC07EF00AD0D3
:100F600076C07EF0835306E1825304E1815302E1AF
:100F7000006A21D083BF08D0D8908037813782376C
:100F80008337002EF7D71ED07EAF02D0838F13D0C9
:100F9000839F11D079C000F07AC083F07BC082F0CB
:100FA0007CC081F008D075C000F076C083F077C0B7
:100FB00082F078C081F083C001F082C002F081C06D
:100FC00003F034D0006A016A026A036A2FD0806B92
:100FD000811F821F831F801F802B05E1812B03E16E
:100FE000822B01E1832B7FB115D77FB356D77FB515
:100FF0008AD7B3D7EF50812705E3822B03E1832BF8
:10100000D8B47D81ED52EF50822703E3832BD8B40F
:101010007D81ED52EF50EFBE01D0800A8327D8B01A
:101020007D817FB9FED67FBB3FD774D7120076C0D3
:101030007DF07A517D1B7DAF05D0D894D89076BFD6
:10104000D8802FD076C07DF079C07EF075517E5F5C
:1010500006E07DAF26D0D850010AD86E22D07AC0E3
:101060007EF076517E5F06E07DAF1BD0D850010A3E
:10107000D86E17D07BC07EF077517E5F06E07DAFE3
:1010800010D0D850010AD86E0CD07CC07EF07851B8
:101090007E5F06E07DAF05D0D850010AD86E01D042
:1010A000D8901200636B646B656B666B676B686BE3
:1010B000696B6A6B6B6B6C6B6D6B6E6B6F6B70914E
:1010C00070B1E7D0666B656B646B636B6A6B696B61
:1010D000686B676B6E6B6D6B6C6B6B6B6F6B6F5173
:1010E000020823E31EDC92D40152FCE16F51040D8F
:1010F000F350036A630F016E000E032201C071F00A
:1011000003C072F0E0D572C0EAFF71C0E9FF00C011
:10111000EFFF01C0ECFF02C0ECFF03C0ECFF6F2B40
:10112000640E716F62EC02F0DAD7D88266C078F094
:1011300065C077F064C076F063C075F06AC07CF07B
:1011400069C07BF068C07AF067C079F03BDE03C00D
:1011500074F002C073F001C072F000C071F000C002
:1011600000F001C001F002C002F003C003F0019ED4
:1011700003C074F002C073F001C072F000C071F0DF
:1011800003C078F002C077F001C076F000C075F0BF
:101190007C6B7B6B200E7A6F7F0E796F48DFD8A057
:1011A00077D0D8826AC078F069C077F068C076F0EE
:1011B00067C075F06EC07CF06DC07BF06CC07AF0DB
:1011C0006BC079F0FFDD03C074F002C073F001C0A2
:1011D00072F000C071F000C000F001C001F002C068
:1011E00002F003C003F0019E03C074F002C073F06C
:1011F00001C072F000C071F003C078F002C077F057
:1012000001C076F000C075F07C6B7B6B200E7A6FAE
:101210007F0E796F0CDF3CE3D88266C078F065C042
:1012200077F064C076F063C075F06EC07CF06DC07E
:101230007BF06CC07AF06BC079F0C4DD03C074F051
:1012400002C073F001C072F000C071F000C000F085
:1012500001C001F002C002F003C003F0019E03C010
:1012600074F002C073F001C072F000C071F003C0EE
:1012700078F002C077F001C076F000C075F07C6BAA
:101280007B6B200E7A6F7F0E796FD1DE01E3708168
:1012900017D7D89266C078F065C077F064C076F052
:1012A00063C075F06AC07CF069C07BF068C07AF0FA
:1012B00067C079F087DD03C074F002C073F001C02D
:1012C00072F000C071F0D89203C078F002C077F0DD
:1012D00001C076F000C075F06EC07CF06DC07BF090
:1012E0006CC07AF06BC079F06DDD03C074F002C0A1
:1012F00073F001C072F000C071F003C07CF002C056
:101300007BF001C07AF000C079F0806B7F6B400EFB
:101310007E6F800E7D6F3DEC05F01200646B636B99
:10132000686B676B666B656B17C064F016C063F023
:1013300064BF31D064336333643363336433633302
:10134000643363330F0E641764C07AF063C079F0BE
:10135000CAEC04F003C07CF002C07BF001C07AF05C
:1013600000C079F0806B7F6B7E6B830E7D6F3DECF0
:1013700005F003C068F002C067F001C066F000C06D
:1013800065F065C000F066C001F067C002F068C09B
:1013900003F04ED04DD0631F641F64336333643356
:1013A000633364336333643363330F0E6417010EA6
:1013B0006327000E642364C07AF063C079F0CAEC3E
:1013C00004F003C07CF002C07BF001C07AF000C0E2
:1013D00079F0806B7F6B7E6B830E7D6F3DEC05F04B
:1013E00003C06CF002C06BF001C06AF000C069F08D
:1013F00003C080F002C07FF001C07EF000C07DF02D
:10140000846B836B800E826F7F0E816FEAEC05F038
:1014100003C068F002C067F001C066F000C065F06C
:1014200065C000F066C001F067C002F068C003F05C
:1014300035EF0AF0556A546A536A526A596A586A13
:10144000576A566A5D6A5C6A5B6A5A6A616B606B6E
:101450005F6A5E6A626B26DE03C061F002C060F004
:1014600001C05FF000C05EF059D703C05DF002C05C
:101470005CF001C05BF000C05AF061C078F060C061
:1014800077F05FC076F05EC075F07C6B7B6B7A6B3B
:10149000796BCDDDD8A0F0D0D88261C078F060C083
:1014A00077F05FC076F05EC075F05DC07CF05CC028
:1014B0007BF05BC07AF05AC079F084DC03C055F051
:1014C00002C054F001C053F000C052F055C080F08B
:1014D00054C07FF053C07EF052C07DF0060E846F82
:1014E000110E836F290E826F7A0E816FEAEC05F080
:1014F00003C059F002C058F001C057F000C056F0C8
:101500007A6B62C079F0CAEC04F003C078F002C0D4
:1015100077F001C076F000C075F05DC07CF05CC073
:101520007BF05BC07AF05AC079F081DD02E3622B78
:10153000E7D76207036A62C002F0D890023603362A
:101540000250F2CF63F0F29E03C0F7FFEDEC00F023
:101550000900F5CF03F063BFF28E636F03C064F040
:1015600003C07AF0796FCAEC04F003C07CF002C0CB
:101570007BF001C07AF000C079F0806B7F6B7A0E4F
:101580007E6F880E7D6F3DEC05F0D89259C078F0E3
:1015900058C077F057C076F056C075F003C07CF0A5
:1015A00002C07BF001C07AF000C079F00BDC03C010
:1015B00059F002C058F001C057F000C056F059C0B1
:1015C00080F058C07FF057C07EF056C07DF0846B2D
:1015D000836BFA0E826F880E816FEAEC05F003C010
:1015E00059F002C058F001C057F000C056F0626BCD
:1015F000036A62C002F0D890023603360250F2CF7E
:1016000063F0F29E03C0F7FF4BEC00F00900F5CF4A
:1016100003F063BFF28E796F03C07AF0CAEC04F076
:1016200003C078F002C077F001C076F000C075F01A
:1016300059C07CF058C07BF057C07AF056C079F0A2
:10164000F6DC02E3622BD4D762077A6B62C079F0D2
:10165000CAEC04F003C080F002C07FF001C07EF04D
:1016600000C07DF0846B836B800E826F7F0E816F74
:10167000EAEC05F009D008D05EC000F05FC001F0D0
:1016800060C002F061C003F06BEF10F05F50B6086D
:101690005F6E036A60C063F0608FD890603361331F
:1016A000623303320232013200325F2EF6D763AF6B
:1016B0000BD0001E011E021E031E002AD8B4012AF0
:1016C000D8B4022AD8B4032A1200D8B203D0EA6AE6
:1016D000680EE96E006A016A026A036A686B696BE8
:1016E0006A6B6B6B67516611651164112CE0200EFB
:1016F0006C6FD89060376137623763376837693706
:101700006A376B3767516B5D08E166516A5D05E1C9
:101710006551695D02E16451685D0FE36451685F82
:101720006551D8A0653D695F6651D8A0663D6A5F86
:101730006751D8A0673D6B5FD8800036013602360E
:1017400003366C2FD6D768C0EFFF69C0ECFF6AC0C4
:10175000ECFF6BC0ECFF1200E950576E5650596E0B
:101760001AE055C080F054C07FF053C07EF052C0E4
:101770007DF0846B836B200E826F820E816FEAECAA
:1017800005F003C055F002C054F001C053F000C092
:1017900052F0592EE6D755C062F054C061F053C0E4
:1017A00060F052C05FF072DF03C055F002C054F029
:1017B00001C053F000C052F055AE0DD05706578A05
:1017C000521E531E541E551E522AD8B4532AD8B442
:1017D000542AD8B4552A3B0E5E6E9A0E5D6ECA0E20
:1017E0005C6E5B6A0A0E596E5650D8B4572AD8827E
:1017F000EA6A520EE96E55C063F054C062F053C0FD
:1018000061F052C060F05EC067F05DC066F05CC021
:1018100065F05BC064F059DF015000520FE15628BB
:10182000595C0CE057500CE00F0B595C01E03BE2B7
:1018300057BE39D057BC04D0200E30D0200E5716DA
:1018400057AA0DD0579A5650D8A457060050576E35
:101850002D0E9EA8FED7AD6E5750006E576A56509B
:10186000595C0BE10050576E2E0E9EA8FED7AD6E50
:101870005750006E200E5716000E300E57AA0ED08D
:10188000579A5650D8A457060050576E2D0E9EA852
:10189000FED7AD6E5750006E576A300E00260050CE
:1018A0009EA8FED7AD6ED8925EC063F05DC062F0B8
:1018B0005CC061F05BC060F0676B666B656B0A0EC5
:1018C000646F03DF03C05EF002C05DF001C05CF036
:1018D00000C05BF0592E8BD71200010E615DFC0F2A
:1018E0000EE2040F8AEF0CF0800E626F08D0C00E7B
:1018F000626F05D0940E626F02D0D40E626F010E3B
:10190000605D622762518009636F646B656F9FEC55
:1019100002F01200F2CF0DF0F29EE824F76AF736DB
:10192000390FF66E190EF7220A00F550FA6E08000C
:10193000F5500DBEF28EF96EE818EE18F418FA188C
:101940005F500C0A05E0060A0DE0020A11E016D00D
:10195000646B010E656F9FEC02F0020E716F62EC1A
:1019600002F012D0010E606F020E616FB6DF0CD074
:10197000646B100E656F9FEC02F006D0010E646F71
:101980005FC065F09FEC02F01200E950576E5650B0
:10199000596E1AE055C080F054C07FF053C07EF0FD
:1019A00052C07DF0846B836B200E826F820E816F3C
:1019B000EAEC05F003C055F002C054F001C053F04A
:1019C00000C052F0592EE6D755C062F054C061F005
:1019D00053C060F052C05FF059DE03C055F002C042
:1019E00054F001C053F000C052F055AE0DD0570670
:1019F000578A521E531E541E551E522AD8B4532ABB
:101A0000D8B4542AD8B4552A3B0E5E6E9A0E5D6E39
:101A1000CA0E5C6E5B6A0A0E596E5650D8B4572ACD
:101A2000D882EA6A520EE96E55C063F054C062F083
:101A300053C061F052C060F05EC067F05DC066F0F8
:101A40005CC065F05BC064F040DE015000520FE105
:101A50005628595C0CE057500CE00F0B595C01E024
:101A600037E257BE35D057BC04D0200E2DD0200E03
:101A7000571657AA0CD0579A5650D8A4570600505C
:101A8000576E2D0E5F6E5CDF5750006E576A5650D2
:101A9000595C0AE10050576E2E0E5F6E51DF5750B1
:101AA000006E200E5716000E300E57AA0DD0579A12
:101AB0005650D8A457060050576E2D0E5F6E40DF6B
:101AC0005750006E576A300E002600C05FF038DFB6
:101AD000D8925EC063F05DC062F05CC061F05BC034
:101AE00060F0676B666B656B0A0E646FEEDD03C0BA
:101AF0005EF002C05DF001C05CF000C05BF0592EEA
:101B00008FD7C1EF10F00900F5520CE0F6CF52F07C
:101B1000F7CF53F0F5CF5FF013DF52C0F6FF53C09D
:101B2000F7FFF1D7CCEF10F0646B636B626B616B06
:101B30005FC066F05EC065F06053D8B489D065C000
:101B4000E9FF66C0EAFF646B636B626BEFCF61F025
:101B50006551D8B46607650765C0E9FF66C0EAFF4E
:101B6000EF50696B686B676F006A005061136751D3
:101B7000621368516313695164136551D8B46607E1
:101B8000650765C0E9FF66C0EAFFEF506A6B696BE5
:101B9000686B676F030E6717686B696B6A6B006A27
:101BA000016A005061130150621367516313685159
:101BB000641365C0E9FF66C0EAFFEF506A6B696BAA
:101BC000686B676FE00E6717686B696B6A6B006A1A
:101BD0006735016E6835026E6935036E013602366F
:101BE0000336013602360336013602360336013635
:101BF00002360336E00E01160050611301506213E5
:101C000002506313035064136551D8B46607650727
:101C100065C0E9FF66C0EAFFEF50686B676F006A56
:101C2000016A6735026E6835036E02360336023686
:101C300003360236033602360336E00E0216005033
:101C4000611301506213025063130350641353D0A5
:101C5000020E655F000E665B65C0E9FF66C0EAFFC5
:101C6000EF506A6B696B686B676FE00E6717686BA4
:101C7000696B6A6B6A31646F6931636F6831626F77
:101C80006731616F64336333623361336433633369
:101C90006233613364336333623361336433633398
:101CA00062336133070E64176551D8B46607650760
:101CB00065C0E9FF66C0EAFFEF506A6B696B686B4D
:101CC000676F6735006E6835016E6935026E6A357B
:101CD000036E003601360236033600360136023610
:101CE0000336F80E001600506113015062130250C3
:101CF00063130350641361C000F062C001F063C05D
:101D000002F064C003F085EF11F0E950586E3B0E0D
:101D10005F6E9A0E5E6ECA0E5D6E5C6A0A0E5A6E39
:101D2000D882EA6A540EE96E57C063F056C062F07A
:101D300055C061F054C060F05FC067F05EC066F0EF
:101D40005DC065F05CC064F0C0DC015000520FE182
:101D50005A50010A0CE058500BE00F0B5A5C01E09E
:101D60000DE258BE0BD058BC03D0200E02D0586AEA
:101D7000300E002600509EA8FED7AD6ED8925FC0F0
:101D800063F05EC062F05DC061F05CC060F0676BE4
:101D9000666B656B0A0E646F98DC03C05FF002C06F
:101DA0005EF001C05DF000C05CF05A2EB9D71200A1
:101DB0000F0E606F660E5F6E0F0140B708D0F10E18
:101DC0006F1408096F6E0001616B1BD00F0130B7F3
:101DD00009D0F10E6F1406096F6E010E0001616FDC
:101DE00010D00F0120B709D0F10E6F1404096F6EE7
:101DF000020E0001616F05D00F01000E016E3CD094
:101E000000015B50030B006EFC0E60140010606E4E
:101E10000F0E636F640E626F57C067F056C066F0B6
:101E200055C065F054C064F05CC068F013EC03F07A
:101E30005AC065FF659C5DB0658C5E6A5A505E5CF9
:101E400014E258C0E9FF59C0EAFFEFCF64F060C068
:101E5000EAFF5FC0E9FF64C0EFFF5F2AD8B4602BE0
:101E6000582AD8B4592A5E2AE9D76086F10E6F1431
:101E70006F6E010E016E0F010001B0EF12F0F86AF3
:101E8000D09E078EB886810EAF6E000EB06EA60E85
:101E9000AC6E900EAB6E9388939A8A9AC150C00B29
:101EA0000F09C16E166A176A186A196A1A6A1B6ADC
:101EB0003B6A3A6A396A1D0E386E3C903C82080EC5
:101EC0003D6E030E3E6E3F6A3F50070813E3036A00
:101ED0003F50300FE96E000E0320EA6E330EEF6EB6
:101EE000036A3F50270FE96E000E0320EA6EEF6A87
:101EF0003F2AEAD7480EF66E030EF76E51EC02F059
:101F0000C2EC02F0C2EC02F0ABEF03F0000E0609E7
:101F1000CA6E180ECB6E9D80000E946E8B948B94BF
:101F20000C0EBD6EC00EF212C050C00B0709C06E81
:101F3000C09EC280C150C00B0D09C16E6C0EF66E02
:101F4000030EF76E51EC02F0000E016EC250C30B8F
:101F50000110C26E140E716F62EC02F0C282C2B246
:101F6000FED7C4CF58F0070E596E19EC04F001C02B
:101F700050F050501D0802E31E0E506E7A0EF66EA1
:101F8000030EF76E060E566E2DEC04F050C056F0A0
:101F90001B0E576E3DEC04F0040E016EC250C30BD5
:101FA0000110C26E140E716F62EC02F0C282C2B2F6
:101FB000FED7C4CF58F0050E596E19EC04F001C0DD
:101FC00051F05150270802E3280E516E515032084B
:101FD00002E2320E516E840EF66E030EF76E070E9D
:101FE000566E2DEC04F051C056F01B0E576E3DECB2
:101FF00004F091EC04F07A6B796BCAEC04F003C046
:1020000047F002C046F001C045F000C044F0140E95
:10201000716F62EC02F08E0EF66E030EF76E0C0E10
:10202000566E2DEC04F019C053F0370E546EE5ECEB
:1020300004F09C0EF66E030EF76E0B0E566E2DEC32
:1020400004F018C053F0370E546EE5EC04F0A90EFE
:10205000F66E030EF76E0B0E566E2DEC04F017C0E5
:1020600053F0370E546EE5EC04F0B60EF66E030E28
:10207000F76E0B0E566E2DEC04F016C053F0370EB3
:10208000546EE5EC04F0200E9EA8FED7AD6E0A0E4D
:10209000716F62EC02F052EC08F003C04BF002C02A
:1020A0004AF001C049F000C048F00A0E716F62ECBE
:1020B00002F04BC043F04AC042F049C041F048C072
:1020C00040F040C030F041C031F042C032F043C077
:1020D00033F01AEF0AF003C04FF002C04EF001C017
:1020E0004DF000C04CF00A0E716F62EC02F0C60EAB
:1020F000F66E030EF76E0E0E566E2DEC04F0890E82
:10210000E96E4BC055F04AC054F049C053F048C086
:1021100052F0020E566EACEC0BF0D60EF66E030EBD
:10212000F76E0E0E566E2DEC04F0890EE96E4FC060
:1021300055F04EC054F04DC053F04CC052F0020E5A
:10214000566EACEC0BF0200E9EA8FED7AD6E010EC5
:10215000606F616F6DEC0CF0540E5F6EA0EC0CF0D4
:102160003D0E5F6EA0EC0CF0020EE96E4BC055F018
:102170004AC054F049C053F048C052F0010E566EA8
:1021800004D4010E606F020E616F6DEC0CF0E80E6E
:10219000F66E030EF76EB7D451C0BEFF7A6B51C016
:1021A00079F0CAEC04F003C078F002C077F001C007
:1021B00076F000C075F04BC07CF04AC07BF049C09F
:1021C0007AF048C079F017EC08F001E3BE687A6B4A
:1021D00050C079F0CAEC04F04BC078F04AC077F0F8
:1021E00049C076F048C075F003C07CF002C07BF0B7
:1021F00001C07AF000C079F017EC08F002E3080E95
:10220000BE6E7A6B50C079F0CAEC04F003C078F06F
:1022100002C077F001C076F000C075F04BC07CF0D2
:102220004AC07BF049C07AF048C079F017EC08F05A
:102230001AE37A6B51C079F0CAEC04F04BC078F025
:102240004AC077F049C076F048C075F003C07CF012
:1022500002C07BF001C07AF000C079F017EC08F002
:1022600002E3120EBE6E60BE04D00F0150AF49D122
:102270000001536A270E526E60AE17D0F10E6F1434
:102280006F6E2298A490229074BE2280749E60A4E7
:102290000BD0000E60B0010E070B006ED890003618
:1022A000F10E22140010226E1CD00F0150AF15D079
:1022B000F10E6F140A096F6E2288A492229074BCEA
:1022C0002280749C5051070B070B006ED89000368B
:1022D000F10E22140010226E03D0000E016E4AD0BF
:1022E000000165500F0B2F6E229A65BC228A229C3A
:1022F00062B6228C000E22BC010E576E0F0E5F6E6E
:10230000640E5E6E57C060F00FD403C026F002C0AA
:1023100025F001C024F000C023F00F0E566E660EAB
:10232000556E546A2F50545C14E255C0E9FF56C0F4
:10233000EAFFEFCF59F053C0EAFF52C0E9FF59C09E
:10234000EFFF522AD8B4532A552AD8B4562A542A11
:10235000E9D7F10E6F146F6E229EA4BE228EA49E4A
:1023600022A804D00F01509F03D00001609E0F01EE
:10237000010E016E0152D8B4BCD0000E22B8010E7D
:10238000526E000E22B0010E536EF00EF66E030E6A
:10239000F76E0C0E566E00012DEC04F052C056F094
:1023A0001B0E576E3DEC04F0FE0EF66E030EF76E3C
:1023B000040E566E2DEC04F0410EE96E26C057F067
:1023C00025C056F024C055F023C054F09EDC050E05
:1023D000F66E040EF76E050E566E2DEC04F02FC04F
:1023E00056F01B0E576E3DEC04F00C0EF66E040E0C
:1023F000F76E050E566E2DEC04F053C056F01B0E12
:10240000576E3DEC04F0200E9EA8FED7AD6E22C0A4
:1024100000F02230070B526E000E22BA010E536EEE
:10242000000E22BC010E546E000E22BE010E556E2F
:10243000160EF66E040EF76E050E566E2DEC04F0B9
:1024400052C056F01B0E576E3DEC04F01D0EF66E9A
:10245000040EF76E050E566E2DEC04F053C056F0C8
:102460001B0E576E3DEC04F0240EF66E040EF76E54
:10247000050E566E2DEC04F054C056F01B0E576E30
:102480003DEC04F02B0EF66E040EF76E050E566E44
:102490002DEC04F055C056F01B0E576E3DEC04F0C9
:1024A000340EF66E040EF76E51EC02F03F6A2F50B8
:1024B0003F5C15E2036A3F50270FE96E000E0320D0
:1024C000EA6EEFCF52F052C053F0370E546EE5EC87
:1024D00004F0200E9EA8FED7AD6E3F2AE8D70D0E61
:1024E0009EA8FED7AD6E0A0E9EA8FED7AD6E08D090
:1024F0000F01420EF66E040EF76E000151EC02F071
:102500000F0140A704D030A702D020B7CDD0215072
:102510000608D8B0C9D0FF0A04E12050D008D8B0CE
:10252000C3D0216A206A000E3CB2010E526E000E2A
:102530003CB0010E536E3BC057F03AC056F039C064
:1025400055F038C054F0596A300E586E3DC05AF0FC
:102550003EC05BF052C05CF053C05DF0000128D477
:1025600001C03FF03F3C01D098D0540EF66E040EEF
:10257000F76E060E566E2DEC04F03FC056F01B0EA3
:10258000576E3DEC04F05C0EF66E040EF76E050E11
:10259000566E2DEC04F0410EE96E3BC057F03AC088
:1025A00056F039C055F038C054F085EC0EF0640E8A
:1025B000F66E040EF76E050E566E2DEC04F03DC05F
:1025C00056F01B0E576E3DEC04F0200E9EA8FED771
:1025D000AD6E000E3CB2010E526E000E3CB0010E0C
:1025E000536E6E0EF66E040EF76E040E566E2DECE4
:1025F00004F03EC056F01B0E576E3DEC04F0740E16
:10260000F66E040EF76E050E566E2DEC04F052C0F9
:1026100056F01B0E576E3DEC04F07B0EF66E040E6A
:10262000F76E050E566E2DEC04F053C056F01B0EDF
:10263000576E3DEC04F0820EF66E040EF76E0C0E33
:10264000566E2DEC04F03F6A3D503F5C1DE2036A7C
:102650003F50300FE96E000E0320EA6EEFCF52F0CC
:102660000D0E9EA8FED7AD6E0A0E9EA8FED7AD6ECB
:1026700052C053F0370E546EE5EC04F0200E9EA8C5
:10268000FED7AD6E3F2AE0D70D0E9EA8FED7AD6EE9
:102690000A0E9EA8FED7AD6E06D0900EF66E040E02
:1026A000F76E51EC02F00F01020E526EFA0E0001AD
:1026B000716F62EC02F0522E01D002D00F01F6D7FA
:0426C00043D40300FC
:020000040030CA
:0E00000000C21E1E008691000FC00FE00F40D0
:00000001FF
;PIC18F2480
;CRC=046F  CREATED="12-Mar-18 11:40"
